{
  "contractName": "Lottery",
  "abi": [
    {
      "inputs": [],
      "payable": false,
      "stateMutability": "nonpayable",
      "type": "constructor"
    },
    {
      "anonymous": false,
      "inputs": [
        {
          "indexed": false,
          "internalType": "uint256",
          "name": "index",
          "type": "uint256"
        },
        {
          "indexed": false,
          "internalType": "address",
          "name": "bettor",
          "type": "address"
        },
        {
          "indexed": false,
          "internalType": "uint256",
          "name": "amount",
          "type": "uint256"
        },
        {
          "indexed": false,
          "internalType": "bytes1",
          "name": "challenges",
          "type": "bytes1"
        },
        {
          "indexed": false,
          "internalType": "uint256",
          "name": "answerBlockNumber",
          "type": "uint256"
        }
      ],
      "name": "BET",
      "type": "event"
    },
    {
      "anonymous": false,
      "inputs": [
        {
          "indexed": false,
          "internalType": "uint256",
          "name": "index",
          "type": "uint256"
        },
        {
          "indexed": false,
          "internalType": "address",
          "name": "bettor",
          "type": "address"
        },
        {
          "indexed": false,
          "internalType": "uint256",
          "name": "amount",
          "type": "uint256"
        },
        {
          "indexed": false,
          "internalType": "bytes1",
          "name": "challenges",
          "type": "bytes1"
        },
        {
          "indexed": false,
          "internalType": "bytes1",
          "name": "answer",
          "type": "bytes1"
        },
        {
          "indexed": false,
          "internalType": "uint256",
          "name": "answerBlockNumber",
          "type": "uint256"
        }
      ],
      "name": "DRAW",
      "type": "event"
    },
    {
      "anonymous": false,
      "inputs": [
        {
          "indexed": false,
          "internalType": "uint256",
          "name": "index",
          "type": "uint256"
        },
        {
          "indexed": false,
          "internalType": "address",
          "name": "bettor",
          "type": "address"
        },
        {
          "indexed": false,
          "internalType": "uint256",
          "name": "amount",
          "type": "uint256"
        },
        {
          "indexed": false,
          "internalType": "bytes1",
          "name": "challenges",
          "type": "bytes1"
        },
        {
          "indexed": false,
          "internalType": "bytes1",
          "name": "answer",
          "type": "bytes1"
        },
        {
          "indexed": false,
          "internalType": "uint256",
          "name": "answerBlockNumber",
          "type": "uint256"
        }
      ],
      "name": "FAIL",
      "type": "event"
    },
    {
      "anonymous": false,
      "inputs": [
        {
          "indexed": false,
          "internalType": "uint256",
          "name": "index",
          "type": "uint256"
        },
        {
          "indexed": false,
          "internalType": "address",
          "name": "bettor",
          "type": "address"
        },
        {
          "indexed": false,
          "internalType": "uint256",
          "name": "amount",
          "type": "uint256"
        },
        {
          "indexed": false,
          "internalType": "bytes1",
          "name": "challenges",
          "type": "bytes1"
        },
        {
          "indexed": false,
          "internalType": "uint256",
          "name": "answerBlockNumber",
          "type": "uint256"
        }
      ],
      "name": "REFUND",
      "type": "event"
    },
    {
      "anonymous": false,
      "inputs": [
        {
          "indexed": false,
          "internalType": "uint256",
          "name": "index",
          "type": "uint256"
        },
        {
          "indexed": false,
          "internalType": "address",
          "name": "bettor",
          "type": "address"
        },
        {
          "indexed": false,
          "internalType": "uint256",
          "name": "amount",
          "type": "uint256"
        },
        {
          "indexed": false,
          "internalType": "bytes1",
          "name": "challenges",
          "type": "bytes1"
        },
        {
          "indexed": false,
          "internalType": "bytes1",
          "name": "answer",
          "type": "bytes1"
        },
        {
          "indexed": false,
          "internalType": "uint256",
          "name": "answerBlockNumber",
          "type": "uint256"
        }
      ],
      "name": "WIN",
      "type": "event"
    },
    {
      "constant": true,
      "inputs": [],
      "name": "answerForTest",
      "outputs": [
        {
          "internalType": "bytes32",
          "name": "",
          "type": "bytes32"
        }
      ],
      "payable": false,
      "stateMutability": "view",
      "type": "function"
    },
    {
      "constant": true,
      "inputs": [],
      "name": "owner",
      "outputs": [
        {
          "internalType": "address payable",
          "name": "",
          "type": "address"
        }
      ],
      "payable": false,
      "stateMutability": "view",
      "type": "function"
    },
    {
      "constant": true,
      "inputs": [],
      "name": "getPot",
      "outputs": [
        {
          "internalType": "uint256",
          "name": "pot",
          "type": "uint256"
        }
      ],
      "payable": false,
      "stateMutability": "view",
      "type": "function"
    },
    {
      "constant": false,
      "inputs": [
        {
          "internalType": "bytes1",
          "name": "challenges",
          "type": "bytes1"
        }
      ],
      "name": "betAndDistribute",
      "outputs": [
        {
          "internalType": "bool",
          "name": "result",
          "type": "bool"
        }
      ],
      "payable": true,
      "stateMutability": "payable",
      "type": "function"
    },
    {
      "constant": false,
      "inputs": [
        {
          "internalType": "bytes1",
          "name": "challenges",
          "type": "bytes1"
        }
      ],
      "name": "bet",
      "outputs": [
        {
          "internalType": "bool",
          "name": "result",
          "type": "bool"
        }
      ],
      "payable": true,
      "stateMutability": "payable",
      "type": "function"
    },
    {
      "constant": false,
      "inputs": [],
      "name": "distribute",
      "outputs": [],
      "payable": false,
      "stateMutability": "nonpayable",
      "type": "function"
    },
    {
      "constant": false,
      "inputs": [
        {
          "internalType": "bytes32",
          "name": "answer",
          "type": "bytes32"
        }
      ],
      "name": "setAnswerForTest",
      "outputs": [
        {
          "internalType": "bool",
          "name": "result",
          "type": "bool"
        }
      ],
      "payable": false,
      "stateMutability": "nonpayable",
      "type": "function"
    },
    {
      "constant": true,
      "inputs": [
        {
          "internalType": "bytes1",
          "name": "challenges",
          "type": "bytes1"
        },
        {
          "internalType": "bytes32",
          "name": "answer",
          "type": "bytes32"
        }
      ],
      "name": "isMatch",
      "outputs": [
        {
          "internalType": "enum Lottery.BettingResult",
          "name": "",
          "type": "uint8"
        }
      ],
      "payable": false,
      "stateMutability": "pure",
      "type": "function"
    },
    {
      "constant": true,
      "inputs": [
        {
          "internalType": "uint256",
          "name": "index",
          "type": "uint256"
        }
      ],
      "name": "getBetInfo",
      "outputs": [
        {
          "internalType": "uint256",
          "name": "answerBlockNumber",
          "type": "uint256"
        },
        {
          "internalType": "address",
          "name": "bettor",
          "type": "address"
        },
        {
          "internalType": "bytes1",
          "name": "challenges",
          "type": "bytes1"
        }
      ],
      "payable": false,
      "stateMutability": "view",
      "type": "function"
    }
  ],
  "bytecode": "0x60806040526000600560006101000a81548160ff02191690831515021790555034801561002b57600080fd5b5033600360006101000a81548173ffffffffffffffffffffffffffffffffffffffff021916908373ffffffffffffffffffffffffffffffffffffffff1602179055506115008061007c6000396000f3fe6080604052600436106100865760003560e01c80638da5cb5b116100595780638da5cb5b1461020157806399a167d714610258578063e16ea857146102e1578063e4fc6b6d14610349578063f4b46f5b1461036057610086565b8063403c9fa81461008b5780637009fa36146100b657806379141f801461010957806384f7e4f0146101d6575b600080fd5b34801561009757600080fd5b506100a06103c8565b6040518082815260200191505060405180910390f35b3480156100c257600080fd5b506100ef600480360360208110156100d957600080fd5b81019080803590602001909291905050506103d2565b604051808215151515815260200191505060405180910390f35b34801561011557600080fd5b506101426004803603602081101561012c57600080fd5b810190808035906020019092919050505061048a565b604051808481526020018373ffffffffffffffffffffffffffffffffffffffff1673ffffffffffffffffffffffffffffffffffffffff168152602001827effffffffffffffffffffffffffffffffffffffffffffffffffffffffffffff19167effffffffffffffffffffffffffffffffffffffffffffffffffffffffffffff19168152602001935050505060405180910390f35b3480156101e257600080fd5b506101eb61058f565b6040518082815260200191505060405180910390f35b34801561020d57600080fd5b50610216610595565b604051808273ffffffffffffffffffffffffffffffffffffffff1673ffffffffffffffffffffffffffffffffffffffff16815260200191505060405180910390f35b34801561026457600080fd5b506102bd6004803603604081101561027b57600080fd5b8101908080357effffffffffffffffffffffffffffffffffffffffffffffffffffffffffffff19169060200190929190803590602001909291905050506105bb565b604051808260028111156102cd57fe5b60ff16815260200191505060405180910390f35b61032f600480360360208110156102f757600080fd5b8101908080357effffffffffffffffffffffffffffffffffffffffffffffffffffffffffffff19169060200190929190505050610896565b604051808215151515815260200191505060405180910390f35b34801561035557600080fd5b5061035e6108b3565b005b6103ae6004803603602081101561037657600080fd5b8101908080357effffffffffffffffffffffffffffffffffffffffffffffffffffffffffffff19169060200190929190505050610f8d565b604051808215151515815260200191505060405180910390f35b6000600454905090565b6000600360009054906101000a900473ffffffffffffffffffffffffffffffffffffffff1673ffffffffffffffffffffffffffffffffffffffff163373ffffffffffffffffffffffffffffffffffffffff161461047a576040517f08c379a000000000000000000000000000000000000000000000000000000000815260040180806020018281038252602b8152602001806114a1602b913960400191505060405180910390fd5b8160068190555060019050919050565b6000806000610497611447565b60026000868152602001908152602001600020604051806060016040529081600082015481526020016001820160009054906101000a900473ffffffffffffffffffffffffffffffffffffffff1673ffffffffffffffffffffffffffffffffffffffff1673ffffffffffffffffffffffffffffffffffffffff1681526020016001820160149054906101000a900460f81b7effffffffffffffffffffffffffffffffffffffffffffffffffffffffffffff19167effffffffffffffffffffffffffffffffffffffffffffffffffffffffffffff1916815250509050806000015193508060200151925080604001519150509193909250565b60065481565b600360009054906101000a900473ffffffffffffffffffffffffffffffffffffffff1681565b60008083905060008490506000846000602081106105d557fe5b1a60f81b90506000856000602081106105ea57fe5b1a60f81b90506004847effffffffffffffffffffffffffffffffffffffffffffffffffffffffffffff1916901c93506004847effffffffffffffffffffffffffffffffffffffffffffffffffffffffffffff1916901b93506004827effffffffffffffffffffffffffffffffffffffffffffffffffffffffffffff1916901c91506004827effffffffffffffffffffffffffffffffffffffffffffffffffffffffffffff1916901b91506004837effffffffffffffffffffffffffffffffffffffffffffffffffffffffffffff1916901b92506004837effffffffffffffffffffffffffffffffffffffffffffffffffffffffffffff1916901c92506004817effffffffffffffffffffffffffffffffffffffffffffffffffffffffffffff1916901b90506004817effffffffffffffffffffffffffffffffffffffffffffffffffffffffffffff1916901c9050837effffffffffffffffffffffffffffffffffffffffffffffffffffffffffffff1916827effffffffffffffffffffffffffffffffffffffffffffffffffffffffffffff19161480156107ce5750827effffffffffffffffffffffffffffffffffffffffffffffffffffffffffffff1916817effffffffffffffffffffffffffffffffffffffffffffffffffffffffffffff1916145b156107e0576001945050505050610890565b837effffffffffffffffffffffffffffffffffffffffffffffffffffffffffffff1916827effffffffffffffffffffffffffffffffffffffffffffffffffffffffffffff191614806108755750827effffffffffffffffffffffffffffffffffffffffffffffffffffffffffffff1916817effffffffffffffffffffffffffffffffffffffffffffffffffffffffffffff1916145b15610887576002945050505050610890565b60009450505050505b92915050565b60006108a182610f8d565b506108aa6108b3565b60019050919050565b6000806108be611447565b60008060015494505b600054851015610f7f5760026000868152602001908152602001600020604051806060016040529081600082015481526020016001820160009054906101000a900473ffffffffffffffffffffffffffffffffffffffff1673ffffffffffffffffffffffffffffffffffffffff1673ffffffffffffffffffffffffffffffffffffffff1681526020016001820160149054906101000a900460f81b7effffffffffffffffffffffffffffffffffffffffffffffffffffffffffffff19167effffffffffffffffffffffffffffffffffffffffffffffffffffffffffffff19168152505092506109b9836000015161115e565b9150600060028111156109c857fe5b8260028111156109d457fe5b1415610e3b5760006109e984600001516111ae565b90506109f98460400151826105bb565b915060016002811115610a0857fe5b826002811115610a1457fe5b1415610b6d57610a3384602001516611c37937e08000600454016111d6565b945060006004819055507f8219079e2d6c1192fb0ff7f78e6faaf5528ad6687e69749205d87bd4b156912b86856020015187876040015185600060208110610a7757fe5b1a60f81b8960000151604051808781526020018673ffffffffffffffffffffffffffffffffffffffff1673ffffffffffffffffffffffffffffffffffffffff168152602001858152602001847effffffffffffffffffffffffffffffffffffffffffffffffffffffffffffff19167effffffffffffffffffffffffffffffffffffffffffffffffffffffffffffff19168152602001837effffffffffffffffffffffffffffffffffffffffffffffffffffffffffffff19167effffffffffffffffffffffffffffffffffffffffffffffffffffffffffffff19168152602001828152602001965050505050505060405180910390a15b60006002811115610b7a57fe5b826002811115610b8657fe5b1415610cd4576611c37937e080006004600082825401925050819055507f3b19d607433249d2ebc766ae82ca3848e9c064f1febb5147bc6e5b21d0adebc58685602001516000876040015185600060208110610bde57fe5b1a60f81b8960000151604051808781526020018673ffffffffffffffffffffffffffffffffffffffff1673ffffffffffffffffffffffffffffffffffffffff168152602001858152602001847effffffffffffffffffffffffffffffffffffffffffffffffffffffffffffff19167effffffffffffffffffffffffffffffffffffffffffffffffffffffffffffff19168152602001837effffffffffffffffffffffffffffffffffffffffffffffffffffffffffffff19167effffffffffffffffffffffffffffffffffffffffffffffffffffffffffffff19168152602001828152602001965050505050505060405180910390a15b600280811115610ce057fe5b826002811115610cec57fe5b1415610e3957610d0784602001516611c37937e080006111d6565b94507f3b19d607433249d2ebc766ae82ca3848e9c064f1febb5147bc6e5b21d0adebc586856020015187876040015185600060208110610d4357fe5b1a60f81b8960000151604051808781526020018673ffffffffffffffffffffffffffffffffffffffff1673ffffffffffffffffffffffffffffffffffffffff168152602001858152602001847effffffffffffffffffffffffffffffffffffffffffffffffffffffffffffff19167effffffffffffffffffffffffffffffffffffffffffffffffffffffffffffff19168152602001837effffffffffffffffffffffffffffffffffffffffffffffffffffffffffffff19167effffffffffffffffffffffffffffffffffffffffffffffffffffffffffffff19168152602001828152602001965050505050505060405180910390a15b505b60016002811115610e4857fe5b826002811115610e5457fe5b1415610e5f57610f7f565b600280811115610e6b57fe5b826002811115610e7757fe5b1415610f6857610e9283602001516611c37937e080006111d6565b93507f59c0185881271a0f53d43e6ab9310091408f9e0ff9ae2512613de800f26b8de48584602001518686604001518760000151604051808681526020018573ffffffffffffffffffffffffffffffffffffffff1673ffffffffffffffffffffffffffffffffffffffff168152602001848152602001837effffffffffffffffffffffffffffffffffffffffffffffffffffffffffffff19167effffffffffffffffffffffffffffffffffffffffffffffffffffffffffffff191681526020018281526020019550505050505060405180910390a15b610f718561129f565b5084806001019550506108c7565b846001819055505050505050565b60006611c37937e08000341461100b576040517f08c379a000000000000000000000000000000000000000000000000000000000815260040180806020018281038252600e8152602001807f4e6f7420656e6f7567682045544800000000000000000000000000000000000081525060200191505060405180910390fd5b61101482611303565b611086576040517f08c379a000000000000000000000000000000000000000000000000000000000815260040180806020018281038252601a8152602001807f4661696c20746f206164642061206e65772042657420496e666f00000000000081525060200191505060405180910390fd5b7f100791de9f40bf2d56ffa6dc5597d2fd0b2703ea70bc7548cd74c04f5d215ab760016000540333348560034301604051808681526020018573ffffffffffffffffffffffffffffffffffffffff1673ffffffffffffffffffffffffffffffffffffffff168152602001848152602001837effffffffffffffffffffffffffffffffffffffffffffffffffffffffffffff19167effffffffffffffffffffffffffffffffffffffffffffffffffffffffffffff191681526020018281526020019550505050505060405180910390a160019050919050565b600081431180156111725750816101000143105b1561118057600090506111a9565b81431161119057600190506111a9565b610100820143106111a457600290506111a9565b600290505b919050565b6000600560009054906101000a900460ff166111cc576006546111cf565b81405b9050919050565b60008060009050600081840390508473ffffffffffffffffffffffffffffffffffffffff166108fc829081150290604051600060405180830381858888f1935050505015801561122a573d6000803e3d6000fd5b50600360009054906101000a900473ffffffffffffffffffffffffffffffffffffffff1673ffffffffffffffffffffffffffffffffffffffff166108fc839081150290604051600060405180830381858888f19350505050158015611293573d6000803e3d6000fd5b50809250505092915050565b6000600260008381526020019081526020016000206000808201600090556001820160006101000a81549073ffffffffffffffffffffffffffffffffffffffff02191690556001820160146101000a81549060ff0219169055505060019050919050565b600061130d611447565b33816020019073ffffffffffffffffffffffffffffffffffffffff16908173ffffffffffffffffffffffffffffffffffffffff1681525050600343018160000181815250508281604001907effffffffffffffffffffffffffffffffffffffffffffffffffffffffffffff191690817effffffffffffffffffffffffffffffffffffffffffffffffffffffffffffff1916815250508060026000805481526020019081526020016000206000820151816000015560208201518160010160006101000a81548173ffffffffffffffffffffffffffffffffffffffff021916908373ffffffffffffffffffffffffffffffffffffffff16021790555060408201518160010160146101000a81548160ff021916908360f81c021790555090505060008081548092919060010191905055506001915050919050565b604051806060016040528060008152602001600073ffffffffffffffffffffffffffffffffffffffff16815260200160007effffffffffffffffffffffffffffffffffffffffffffffffffffffffffffff19168152509056fe4f6e6c79206f776e65722063616e207365742074686520616e7377657220666f722074657374206d6f6465a265627a7a72315820ea4113ce2f521c83f52c9688cf72d161dc42317571162808d1ccafe78353b96a64736f6c63430005100032",
  "source": "// SPDX-License-Identifier: MIT\npragma solidity >=0.4.22 <0.6.0;\n\ncontract Lottery {\n\n    struct BetInfo {\n        uint256 answerBlockNumber;\n        address payable bettor;\n        bytes1 challenges;\n    }\n\n    uint256 private _tail;\n    uint256 private _head;\n    mapping (uint256 => BetInfo) private _bets;\n\n    address payable public owner;\n\n    uint256 constant internal BLOCK_LIMIT = 256;\n    uint256 constant internal BET_BLOCK_INTERVAL = 3;\n    uint256 constant internal BET_AMOUNT = 5 * 10 ** 15;\n\n    uint256 private _pot;\n    bool private mode = false; // false: use answer for test, true: use real block hash\n    bytes32 public answerForTest;\n\n    enum BlockStatus { Checkable, NotRevealed, BlockLimitPassed }\n    enum BettingResult { Fail, Win, Draw }\n\n    event BET(uint256 index, address bettor, uint256 amount, bytes1 challenges, uint256 answerBlockNumber);\n    event WIN(uint256 index, address bettor, uint256 amount, bytes1 challenges, bytes1 answer, uint256 answerBlockNumber);\n    event FAIL(uint256 index, address bettor, uint256 amount, bytes1 challenges, bytes1 answer, uint256 answerBlockNumber);\n    event DRAW(uint256 index, address bettor, uint256 amount, bytes1 challenges, bytes1 answer, uint256 answerBlockNumber);\n    event REFUND(uint256 index, address bettor, uint256 amount, bytes1 challenges, uint256 answerBlockNumber);\n\n    constructor() public {\n        owner = msg.sender;\n    }\n    \n    function getPot() public view returns (uint256 pot) {\n        return _pot;\n    }\n\n    /**\n     * @dev 베팅과 정답 체크 한다. 유저는 0.005 ETH를 보내야 하고, 베팅을 1 byte 글자를 보낸다.\n     * 큐에 저장된 베팅 정보는 이후 distribute 함수에서 해결된다.\n     * @param challenges 유저가 베팅하는 글자\n     * @return 함수가 잘 수행되었는지 확인하는 bool 값\n    */\n    function betAndDistribute(byte challenges) public payable returns (bool result) {\n        bet(challenges);\n\n        distribute();\n\n        return true;\n    }\n\n    // Bet\n    /**\n     * @dev 베팅을 한다. 유저는 0.005 ETH를 보내야 하고, 베팅을 1 byte 글자를 보낸다.\n     * 큐에 저장된 베팅 정보는 이후 distribute 함수에서 해결된다.\n     * @param challenges 유저가 베팅하는 글자\n     * @return 함수가 잘 수행되었는지 확인하는 bool 값\n    */\n    function bet(bytes1 challenges) public payable returns (bool result) {\n        // check the proper ether is sent\n        require(msg.value == BET_AMOUNT, \"Not enough ETH\");\n\n        // push bet to the queue\n        require(pushBet(challenges), \"Fail to add a new Bet Info\");\n\n        // emit event\n        emit BET(_tail - 1, msg.sender, msg.value, challenges, block.number + BET_BLOCK_INTERVAL);\n\n        return true;\n    }\n    \n    /**\n     * @dev 베팅 결과값을 확인하고 팟머니를 분배한다.\n     * 정답 실패: 팟머니 축적, 정답 맞춤: 팟머니 획득, 한글자 맞춤 or 정답 확인 불가: 베팅 금액만 획득\n     */\n    function distribute() public {\n        uint256 cur;\n        uint256 transferAmount;\n\n        BetInfo memory b;\n        BlockStatus currentBlockStatus;\n        BettingResult currentBettingResult;\n\n        for (cur = _head; cur < _tail; cur++) {\n            b = _bets[cur];\n            currentBlockStatus = getBlockStatus(b.answerBlockNumber);\n\n            // Checkable: block.number > AnswerBlockNumber && block.number < BLOCK_LIMIT + AnswerBlockNumber 1\n            if (currentBlockStatus == BlockStatus.Checkable) {\n                bytes32 answerBlockHash = getAnswerBlockHash(b.answerBlockNumber);\n                currentBettingResult = isMatch(b.challenges, answerBlockHash);\n\n                // if win, bettor gets pot\n                if (currentBettingResult == BettingResult.Win) {\n                    // transfer pot\n                    transferAmount = transferAfterPayingFee(b.bettor, _pot + BET_AMOUNT);\n                    // pot = 0\n                    _pot = 0;\n                    // emit WIN\n                    emit WIN(cur, b.bettor, transferAmount, b.challenges, answerBlockHash[0], b.answerBlockNumber);\n                }\n\n                // if fail, bettor's money goes pot\n                if (currentBettingResult == BettingResult.Fail) {\n                    // pot = pot + BET_AMOUNT\n                    _pot += BET_AMOUNT;\n                    // emit FAIL\n                    emit FAIL(cur, b.bettor, 0, b.challenges, answerBlockHash[0], b.answerBlockNumber);\n                }\n                \n                // if draw, refund bettor's money\n                if (currentBettingResult == BettingResult.Draw) {\n                    // transfer only BET_AMOUNT\n                    transferAmount = transferAfterPayingFee(b.bettor, BET_AMOUNT);\n                    // emit DRAW\n                    emit FAIL(cur, b.bettor, transferAmount, b.challenges, answerBlockHash[0], b.answerBlockNumber);\n                }\n            }\n\n            // Not Revealed: block.number <= AnswerBlockNumber 2\n            if (currentBlockStatus == BlockStatus.NotRevealed) break;\n\n            // Block Limit Passed: block.number >= AnswerBlockNumber + BLOCK_LIMIT 3\n            if (currentBlockStatus == BlockStatus.BlockLimitPassed) {\n                // refund\n                transferAmount = transferAfterPayingFee(b.bettor, BET_AMOUNT);\n                // emit refund\n                emit REFUND(cur, b.bettor, transferAmount, b.challenges, b.answerBlockNumber);\n            }\n\n            popBet(cur);\n\n            // check the answer\n        }\n        _head = cur;\n    }\n\n    function transferAfterPayingFee(address payable addr, uint256 amount) internal returns (uint256) {\n        // uint256 fee = amount / 100;\n        uint256 fee = 0;\n        uint256 amountWithoutFee = amount - fee;\n\n        // transfer to addr\n        addr.transfer(amountWithoutFee);\n\n        // transfer to owner\n        owner.transfer(fee);\n\n        return amountWithoutFee;\n    }\n\n    function setAnswerForTest(bytes32 answer) public returns (bool result) {\n        require(msg.sender == owner, \"Only owner can set the answer for test mode\");\n        answerForTest = answer;\n        return true;\n    }\n\n    function getAnswerBlockHash(uint256 answerBlockNumber) internal view returns (bytes32 answer) {\n        return mode ? blockhash(answerBlockNumber) : answerForTest;\n    }\n\n    /**\n     * @dev 베팅글자와  정답을  확인한다.\n     * @param challenges 베팅 글자\n     * @param answer 블락해쉬\n     * @return 정답결과\n     */\n    function isMatch(bytes1 challenges, bytes32 answer) public pure returns (BettingResult) {\n        // challenges 0xab\n        // answer 0xab.....ff 32 bytes\n        bytes1 c1 = challenges;\n        bytes1 c2 = challenges;\n\n        bytes1 a1 = answer[0];\n        bytes1 a2 = answer[0];\n\n        // Get first number\n        c1 = c1 >> 4; // 0xab -> 0x0a\n        c1 = c1 << 4; // 0x0a -> 0xa0\n\n        a1 = a1 >> 4;\n        a1 = a1 << 4;\n\n        // Get second number\n        c2 = c2 << 4; // 0xab -> 0xb0\n        c2 = c2 >> 4; // 0xb0 -> 0x0b\n\n        a2 = a2 << 4;\n        a2 = a2 >> 4;\n\n        if (a1 == c1 && a2 == c2) return BettingResult.Win;\n        if (a1 == c1 || a2 == c2) return BettingResult.Draw;\n        return BettingResult.Fail;\n    }\n\n    function getBlockStatus(uint256 answerBlockNumber) internal view returns (BlockStatus) {\n        if (block.number > answerBlockNumber && block.number < BLOCK_LIMIT + answerBlockNumber) return BlockStatus.Checkable;\n        if (block.number <= answerBlockNumber) return BlockStatus.NotRevealed;\n        if (block.number >= answerBlockNumber + BLOCK_LIMIT) return BlockStatus.BlockLimitPassed;\n\n        return BlockStatus.BlockLimitPassed;\n    }\n\n    function getBetInfo(uint256 index) public view returns (uint256 answerBlockNumber, address bettor, bytes1 challenges) {\n        BetInfo memory b = _bets[index];\n        answerBlockNumber = b.answerBlockNumber;\n        bettor = b.bettor;\n        challenges = b.challenges;\n    }\n\n    function pushBet(bytes1 challenges) internal returns (bool) {\n        BetInfo memory b;\n        b.bettor = msg.sender;\n        b.answerBlockNumber = block.number + BET_BLOCK_INTERVAL;\n        b.challenges = challenges;\n\n        _bets[_tail] = b;\n        _tail++;\n\n        return true;\n    }\n\n    function popBet(uint256 index) internal returns (bool) {\n        delete _bets[index];\n        return true;\n    }\n}",
  "sourcePath": "/Users/jongeunshin95/Desktop/study/inflearn/lottery-smart-contract/contracts/Lottery.sol",
  "compiler": {
    "name": "solc",
    "version": "0.5.16+commit.9c3226ce.Emscripten.clang"
  },
  "schemaVersion": "3.0.23",
  "updatedAt": "2021-11-10T15:16:54.821Z",
  "networkType": "ethereum",
  "devdoc": {
    "methods": {
      "bet(bytes1)": {
        "details": "베팅을 한다. 유저는 0.005 ETH를 보내야 하고, 베팅을 1 byte 글자를 보낸다. 큐에 저장된 베팅 정보는 이후 distribute 함수에서 해결된다.",
        "params": {
          "challenges": "유저가 베팅하는 글자"
        },
        "return": "함수가 잘 수행되었는지 확인하는 bool 값"
      },
      "betAndDistribute(bytes1)": {
        "details": "베팅과 정답 체크 한다. 유저는 0.005 ETH를 보내야 하고, 베팅을 1 byte 글자를 보낸다. 큐에 저장된 베팅 정보는 이후 distribute 함수에서 해결된다.",
        "params": {
          "challenges": "유저가 베팅하는 글자"
        },
        "return": "함수가 잘 수행되었는지 확인하는 bool 값"
      },
      "distribute()": {
        "details": "베팅 결과값을 확인하고 팟머니를 분배한다. 정답 실패: 팟머니 축적, 정답 맞춤: 팟머니 획득, 한글자 맞춤 or 정답 확인 불가: 베팅 금액만 획득"
      },
      "isMatch(bytes1,bytes32)": {
        "details": "베팅글자와  정답을  확인한다.",
        "params": {
          "answer": "블락해쉬",
          "challenges": "베팅 글자"
        },
        "return": "정답결과"
      }
    }
  },
  "userdoc": {
    "methods": {}
  }
}